:020000040800F2
:1000000000100020DD180008251900082519000837
:10001000251900082519000825190008000000000E
:10002000000000000000000000000000251900088A
:1000300025190008000000002519000825190008EE
:1000400000000000000000000000000000000000B0
:1000500000000000000000000000000000000000A0
:100060000000000000000000000000000000000090
:100070000000000000000000000000000000000080
:100080000000000000000000000000000000000070
:100090000000000000000000000000000000000060
:1000A0000000000000000000000000000000000050
:1000B0000000000000000000000000000000000040
:1000C0000000000000000000000000000000000030
:1000D0000000000000000000000000000000000020
:1000E0000000000000000000000000000000000010
:1000F0000000000000000000000000000000000000
:1001000000000000000000000000000000000000EF
:1001100000000000000000000000000000000000DF
:1001200000000000000000000000000000000000CF
:1001300000000000000000000000000000000000BF
:1001400000000000000000000000000000000000AF
:10015000000000000000000000000000000000009F
:10016000000000000000000000000000000000008F
:10017000000000000000000000000000000000007F
:08018000000000000000000077
:10018800054B0648033310B51B1A062B03D9044B3D
:10019800002B00D0984710BD6800002068000020A0
:1001A800000000000648074910B5091A8910CB0F4E
:1001B8005918491003D0044B002B00D0984710BDA4
:1001C80068000020680000200000000010B5074CFF
:1001D8002378002B09D1FFF7D3FF054B002B02D062
:1001E800044800E000BF0123237010BD6800002010
:1001F8000000000028190008094B10B5002B03D097
:100208000849094800E000BF08480368002B02D1EC
:10021800FFF7C8FF10BD064B002BF9D09847F7E74A
:10022800000000006C000020281900086800002069
:100238000000000002B4714649084900095C490001
:100248008E4402BC7047C046002243088B4274D3D8
:1002580003098B425FD3030A8B4244D3030B8B42BF
:1002680028D3030C8B420DD3FF22090212BA030CC8
:100278008B4202D31212090265D0030B8B4219D3A9
:1002880000E0090AC30B8B4201D3CB03C01A5241C9
:10029800830B8B4201D38B03C01A5241430B8B4211
:1002A80001D34B03C01A5241030B8B4201D30B03FA
:1002B800C01A5241C30A8B4201D3CB02C01A524121
:1002C800830A8B4201D38B02C01A5241430A8B42E4
:1002D80001D34B02C01A5241030A8B4201D30B02CD
:1002E800C01A5241CDD2C3098B4201D3CB01C01AE7
:1002F800524183098B4201D38B01C01A52414309F1
:100308008B4201D34B01C01A524103098B4201D3DE
:100318000B01C01A5241C3088B4201D3CB00C01A4B
:10032800524183088B4201D38B00C01A52414308C3
:100338008B4201D34B00C01A5241411A00D20146E8
:10034800524110467047FFE701B5002000F0F0F871
:1003580002BDC0460029F7D076E7704703460B4335
:100368007FD4002243088B4274D303098B425FD3A6
:10037800030A8B4244D3030B8B4228D3030C8B42D2
:100388000DD3FF22090212BA030C8B4202D31212B8
:10039800090265D0030B8B4219D300E0090AC30B8D
:1003A8008B4201D3CB03C01A5241830B8B4201D33A
:1003B8008B03C01A5241430B8B4201D34B03C01A23
:1003C8005241030B8B4201D30B03C01A5241C30A9B
:1003D8008B4201D3CB02C01A5241830A8B4201D30C
:1003E8008B02C01A5241430A8B4201D34B02C01AF6
:1003F8005241030A8B4201D30B02C01A5241CDD29B
:10040800C3098B4201D3CB01C01A524183098B42E5
:1004180001D38B01C01A524143098B4201D34B01CE
:10042800C01A524103098B4201D30B01C01A524131
:10043800C3088B4201D3CB00C01A524183088B42B8
:1004480001D38B00C01A524143088B4201D34B00A1
:10045800C01A5241411A00D2014652411046704713
:100468005DE0CA0F00D04942031000D34042534018
:1004780000229C4603098B422DD3030A8B4212D3D8
:10048800FC22890112BA030A8B420CD3890192110A
:100498008B4208D3890192118B4204D389013AD047
:1004A800921100E08909C3098B4201D3CB01C01A1C
:1004B800524183098B4201D38B01C01A524143092F
:1004C8008B4201D34B01C01A524103098B4201D31D
:1004D8000B01C01A5241C3088B4201D3CB00C01A8A
:1004E800524183088B4201D38B00C01A5241D9D2A2
:1004F80043088B4201D34B00C01A5241411A00D223
:100508000146634652415B10104601D34042002B1E
:1005180000D54942704763465B1000D3404201B59D
:10052800002000F005F802BD0029F8D016E7704752
:100538007047C04670B50D4E0D4D0024AD1BAD1073
:1005480005D0A300F35801349847A542F9D101F02A
:10055800E7F9084E084D0024AD1BAD1005D0A300E7
:10056800F35801349847A542F9D170BD6C1A0008B8
:100578006C1A00086C1A0008701A000870B50F2A67
:1005880032D90C0004430B00A40731D11500040034
:10059800103D2D0901352D0149191E6826605E6838
:1005A80066609E68A660DE681033E6601034994283
:1005B800F3D10F2345191340032B1BD91C1F00230C
:1005C800A4080134A400CE58EE5004339C42FAD15A
:1005D80003232D1909191A4005D00023CC5CEC54CB
:1005E80001339A42FAD170BD0500002AF5D1FAE725
:1005F8000500F2E71A00F8E770B583073FD0541EEC
:10060800002A3BD0CEB20300032503E0621E002C73
:1006180034D0140001335A1E16702B42F6D1032C25
:1006280024D9FF250D402A0215432A0415430F2C0F
:1006380011D92600103E3609013636011A009B19D9
:10064800156055609560D56010329342F8D10F223D
:100658001440032C0AD9261FB6080136B6001A0022
:100668009B1920C29342FCD103221440002C05D0D0
:10067800C9B21C19197001339C42FBD170BD14001A
:100688000300CCE7104B70B51C680500A06B002870
:1006980003D000230561436170BD183000F062F893
:1006A8000A4BA06303800A4B01224380094B8380D5
:1006B800094BC380094B038105234381063383819A
:1006C800002302614361E4E7040000200E330000C8
:1006D800CDABFFFF341200006DE6FFFFECDEFFFF3D
:1006E800174B70B51D68AC6B002C0ED02069616982
:1006F800144A154B00F004F90122002312184B414B
:10070800580040082261636170BD182000F02AF883
:100718000E4BA86303800E4B012243800D4B04004F
:1007280083800D4BC3800D4B038105234381063322
:1007380083810023026143610348094A024BE1E7D0
:10074800040000202D7F954C2DF451580E330000E5
:10075800CDABFFFF341200006DE6FFFFECDEFFFFBC
:100768002E7F954C10B5034B0100186800F058F81F
:1007780010BDC0460400002010B5034B01001868E6
:1007880000F004F810BDC0460400002030B5002970
:100798000FD004390B68002B1EDB204B1A68002A87
:1007A80005D08A4209D908680C18A24216D04A60B6
:1007B800196030BD8B4203D81A005368002BF9D159
:1007C800156854198C4214D010D808680C189C422B
:1007D8001CD04B605160ECE7C918DEE7146852681A
:1007E800A446604408604A601960E2E70C2303608D
:1007F800DFE709686D18511915609942D9D1196850
:100808005B688C46654415605360D2E71C685B687A
:10081800A446604408604B605160CAE78C01002020
:10082800F8B50323CD1C9D43083506000C2D27D2AF
:100838000C25A94226D8284F3A68002A0AD01368FE
:100848005B1B04D436E023685B1B1FD52200546869
:10085800002CF8D17B68002B38D02900300000F03C
:100868003DF8431C0ED00323C41C9C43A04205D072
:10087800211A300000F032F8431C03D025600AE04A
:10088800002DD6DA0C23002033600DE00B2B0CD999
:100898002360E4182560200007220B30231D9043B5
:1008A800C31A01D05A42E250F8BD94420AD0636894
:1008B8005360F0E70B2B03D8536814003B60EAE75A
:1008C8001400E5E7130014003B60E4E70021300062
:1008D80000F004F87860C0E78C010020002370B5B0
:1008E800064C05000800236000F036F8431C00D0D1
:1008F80070BD2368002BFBD02B60F9E708020020AD
:10090800F0B54F464646C0B41604360C9946330037
:1009180005042C0C070C150C63437E436F43654399
:100928001C0CAD1964199C46A64203D980235B02AE
:10093800984647446346250CEF191D044B464A4325
:1009480043432D0C240464199918C91920000CBCC0
:1009580090469946F0BDC046044A1368002B03D060
:100968001818106018007047014BF9E7940100202F
:1009780010020020002382B0054A0193019B934294
:1009880003D8019B01330193F8E702B07047C046D2
:10099800FE0F0000002070471FB500210400102240
:1009A8006846FFF729FE00216A46635C535401310B
:1009B8001029F9D1722000F027F91FBD13B50722BD
:1009C8000E4904006846FFF7D9FD00F05FFA0023DE
:1009D8006A46D15CE25C914204D10133062BF7D11F
:1009E800002400E0012400F059FA0548002C00D149
:1009F8000448FFF7D1FF002016BDC046741900084F
:100A0800541900086419000830B585B002AC0722F3
:100A1800124905002000FFF7B1FD00F037FA002366
:100A2800E15CEA5C914204D10133062BF8D10C4811
:100A38000DE0FFF755FE0B49FFF776FD0023019304
:100A4800019B994202DD019B0133F8E70648FFF755
:100A5800A3FF00F023FA002005B030BD7419000888
:100A680064190008393000005419000810B5040052
:100A78002078013400F032FA2378002BF8D110BD29
:100A880010B500F073F900F09DF900F0DBF91B4890
:100A9800FFF7ECFF1A48FFF7E9FFFFF76BFF19486C
:100AA800FFF7E4FFFFF766FF1748FFF7DFFFFFF7E1
:100AB80061FF1648FFF7DAFFFFF75CFF1448FFF7FE
:100AC800D5FF1448FFF7D2FF00F0E8F91248FFF706
:100AD800CDFF00F081F8114A1021612000F076F86E
:100AE8000F4A1021622000F071F80E4A0021782088
:100AF80000F06CF800F0DAF8FCE7C0467B19000853
:100B08009E190008BB190008D8190008F519000833
:100B1800121A0008151A0008441A0008C509000826
:100B2800110A00089D0900080120704770B51400DB
:100B3800A31A984232DD4D780B782E00303EF6B27B
:100B4800092E01D826700DE02E00413E052E01D851
:100B5800373D06E02E00613E052E01D901201EE03A
:100B6800573D25701D00303DEEB2092E04D823787C
:100B78002D011D4325700EE01D00413D052D01D8B6
:100B8800373B04E01D00613D052DE7D8573B25782C
:100B98001B012B43237001340231C9E7002070BDCB
:100BA800F0B5094E0700356801200F2D0ADCBF2972
:100BB80008D82C012D18002034192771A160E26093
:100BC80023743560F0BDC0468400002010B50023B2
:100BD800FFF7E6FF10BD000010B5084A0021762097
:100BE800FFF7F4FF064A00217720FFF7EFFF054AD9
:100BF80000217920FFF7EAFF10BDC046310B00083D
:100C0800690C00084D0C0008F7B5150001912C007F
:100C180000F064F90F27019A631B9A420CDD2378D0
:100C2800074E1B09F05C00F059F9237801343B406A
:100C3800F05C00F053F9EEE70A2000F04FF9F7BD39
:100C48004019000807B56B46DA1D044B72201B6873
:100C580001211370FFF7D8FF00200EBD840000208B
:100C6800114AF0B500239446032611688DB0CDB221
:100C7800AB420EDA32006C465A43180160440779D9
:100C88000133A754047A007C6A4454709070DBB234
:100C9800EEE7032359436A46C9B27220FFF7B4FF4F
:100CA80000200DB0F0BDC04684000020F0B52D4CEA
:100CB800A54400F0FBF800232B4C226893420DDA80
:100CC800211D1D01695C814206D101221F01E6191F
:100CD800337C134219D004E00133EFE793423DD04F
:100CE800F3E76A460023137200F0E0F832AD28708B
:100CF80000F0DCF802AA687029000120FFF716FF4F
:100D080000282BD16B461B7AB3600025E3199B683A
:100D18005B00AB4209D900F0C9F80A281ED00D289B
:100D28001CD032ABE8540135F0E700F0BFF80A28D0
:100D380001D00D2812D1E419A56802AA32A9280009
:100D4800FFF7F4FE002809D1E9B2E36802A8984742
:100D580001AA107001217A20FFF756FF93239B0008
:100D68009D44F0BDB4FDFFFF84000020F0B590273E
:100D7800002401250326042397B0FF0505A93800A0
:100D8800059306950794089600F036FB102305A9ED
:100D98003800059306950794089600F02DFB052367
:100DA8000AA80B930A960D94139400F0ADF8072344
:100DB800210001A8019302950394049400F092FA8B
:100DC80017B0F0BD802370B51B4C9B02626988B0D8
:100DD8001A4362616269902013400193019BC0230A
:100DE800DB00012503930326022303A9C00504930E
:100DF80005950696079500F0FFFA8023A269DB01A6
:100E08001A43A261A2690D4813400293029B236B07
:100E1800B3432B4323630A4B036096231B024360AF
:100E280000238360C360036183610C33436100F076
:100E380043FC08B070BDC046001002409801002075
:100E4800003801408023104A70B551699B0219434C
:100E58005161526986B0134000939024009B01238E
:100E680080250026E405029301A90233200004939B
:100E78000195039600F0C0FA32002900200000F026
:100E880069FB06B070BDC04600100240902010B546
:100E980001228021C00500F05DFB10BD902010B537
:100EA80000228021C00500F055FB10BD37B508258C
:100EB8006B46DC1D012232232100064800F02EFC7F
:100EC800002804D0044A136A2B431362F0E7207801
:100ED8003EBDC046980100200038014007B56B466A
:100EE800D91D0870024B0122024800F08DFC07BD95
:100EF8008813000098010020024B1868421C1A60F1
:100F08007047C04688010020F0B5036885B0050029
:100F1800DB0703D42B689B0754D49AE00C23B74C07
:100F280062681A40042A06D062681340082B0AD166
:100F38006368DB0307D523689B03EBD56B68002B3D
:100F4800E8D10120C3E16B68012B16D0002B0DD12D
:100F58002268AB4B8026134023602268A94BB60257
:100F680013402360FFF7C8FF070027E0052B09D1CE
:100F780080222368D202134323608022236852020E
:100F8800134306E022689E4B1340236022689D4B62
:100F980013402360FFF7B0FF80260700B6022368DE
:100FA8003342B7D1FFF7A8FFC01B6428F7D9032045
:100FB8008DE1FFF7A1FFC01B6428F8D823683342EE
:100FC800F7D1A7E70C238D4C62681A4206D06268F5
:100FD8001340082B10D16368DB030DD423689B07EB
:100FE80002D5EB68012BACD1F82123682A698B4321
:100FF800D200134323602CE0EB680122002B18D0A9
:101008002368022613432360FFF776FF070023684F
:101018007A49334205D1FFF76FFFC01B0228F6D982
:10102800C5E7F8200B682A698343D20013430B6095
:101038000FE02368022693432360FFF75DFF070054
:101048002368334205D0FFF757FFC01B0228F7D9A2
:10105800ADE72B681B0703D42B685B0725D483E017
:10106800EB690122654C002B0FD0636A02261343FB
:101078006362FFF741FF0700636A3342ECD1FFF771
:101088003BFFC01B0228F7D991E7636A0226934306
:101098006362FFF731FF0700636A3342DCD0FFF772
:1010A8002BFFC01B0228F7D981E780230021534C6E
:1010B8005B05E26900911A4208D1E2691A43E261CC
:1010C800E26913400393039B0123009380274E4E4C
:1010D8007F0033683B4205D0AB68012B12D1226AEE
:1010E80013432EE033683B433360FFF705FF01905D
:1010F80033683B42F0D1FFF7FFFE019BC01A64281A
:10110800F6D954E70122002B0BD1236A0227934317
:101118002362236A033293432362FFF7EDFE06003E
:1011280018E0052B07D10421236A0B432362236AA5
:101138001A432262BCE0236A934304222362236A8F
:1011480093432362B4E0FFF7D7FE304B801B9842ED
:1011580000D92CE7236A3B42F5D1009B012B03D130
:10116800E2692B4B1340E3612B68DB0641D56A69C2
:10117800224C0423012A1BD1616B02260B436363B3
:10118800636B1A436263FFF7B7FE0700636B1B4983
:10119800334205D1FFF7B0FEC01B0228F6D906E797
:1011A800F8204B6BAA698343D20013434B6320E0BA
:1011B80005320AD1F821626B9A436263636BAA69AC
:1011C8008B43D2001343636313E0626B022613431D
:1011D80001226363636B93436363FFF78DFE07002C
:1011E800636B334205D0FFF787FEC01B0228F7D98F
:1011F800DDE62A6A002A0DD1002068E000100240CE
:10120800FFFFFEFFFFFFFBFF007000408813000098
:10121800FFFFFFEF0C232F4C012061680B40082BC8
:1012280055D02D4B022A32D12268802613402360E4
:10123800FFF762FE0700B6042268264B324205D04B
:10124800FFF75AFEC01B0228F6D9B0E60F21DA6A6A
:101258008A43E96A0A43DA62696AA86A5A680843EB
:101268001E4980250A40802102435A601A684904B1
:101278000A431A60FFF740FE0600AD0423682B42BC
:10128800BAD1FFF739FE801B0228F7D98FE622680A
:10129800802513402360FFF72FFE0600AD04236866
:1012A8002B42A9D0FFF728FE801B0228F7D97EE63B
:1012B800FFF722FE02270600236A3B4200D04CE7D4
:1012C800FFF71AFE064B801B9842F5D96FE605B06A
:1012D800F0BDC04600100240FFFFFFFEFFFFC2FF47
:1012E800881300000123F7B53E4D06002A680F0059
:1012F8001A408A420AD33268930711D5F0203A4936
:101308004B688343B06803434B6009E02A689A43FB
:101318000A432A602A6813409942ECD0012060E011
:10132800D30706D4012329682E4A19408F4243D394
:1013380048E02D4C73682268012B02D1920307D430
:10134800ECE7022B02D1920102D4E7E79207E5D538
:10135800032162688A4313436360FFF7CDFD736816
:101368000190012B0DD10C2263681340042BD9D0B6
:10137800FFF7C2FD019BC01A1C4B9842F3D903200A
:101388002FE0022B13D10C2263681340082BC9D01D
:10139800FFF7B2FD019BC01A144B9842F3D9EEE750
:1013A800FFF7AAFD019BC01A104B9842E7D80C2200
:1013B80063681342F4D1B5E7116899431160126864
:1013C8001A42ABD133685B0706D50749084B4A6810
:1013D8001340F26813434B60E1220020054BD2030F
:1013E8001A60FEBD00200240001002408813000071
:1013F800FFF8FFFF00000020F0B50B6887B00293EC
:1014080000230191029ADA4000D195E001229A4026
:1014180003920399029A0A40009200D18AE0019A45
:101428001021526816008E43022E0ED107251D404A
:10143800AD000139A940DC08A4000419276A8F43CC
:1014480001990969A9400F43276203245F00BC4042
:101458000321E4431140B9400568013E25400D438E
:101468000560012E0FD801998568CE682540BE40D9
:10147800354385604568039916098D4301210E405F
:101488009E4035434560C56801992C408D68802190
:10149800BD4049052C43C4600A424BD00121274C6A
:1014A8000327A5691F400D43A561A4699D080C4049
:1014B8000594059C0F242249AD00BF006D18BC405F
:1014C8009021AE68C905A643002488420CD01D4966
:1014D8000134884208D01C490134884204D01B4991
:1014E8000334884200D1023CBC40009934430E00CA
:1014F800AC60174CCD4327683E43D10301D43E006E
:101508002E4026606768009E3E43910301D43E004A
:101518002E406660A768009E3E43D10201D43E007B
:101528002E40A660E668009F3743920201D42E4001
:101538003700E760013365E707B0F0BD00100240EF
:10154800000001400004004800080048000C004862
:1015580000040140002A01D0816100E081627047E7
:10156800F8B504000E0015001F002268D369334047
:101578009B1B59424B41AB421FD1069B0133F5D00F
:10158800069B002B12D123680D4A196803200A40D4
:1015980001211A609A688A439A60220020236932DE
:1015A8001370537000236834237007E0FFF7A4FC1E
:1015B800069BC01B8342D8D2E5E70020F8BDC04691
:1015C8005FFEFFFF030070B519690468C56980688C
:1015D8002268084359690843304928430A400243AE
:1015E800226061682E4A98690A40D9680A43196AD4
:1015F8006260A26808432B490A400243A2602A4A53
:10160800116B03220A402949885C80221202954204
:1016180025D1082819D8FEF70DFE0918051809184C
:1016280018180E005968224B480808E05968E12349
:1016380048081B0403E05968802348085B02C01867
:10164800FEF702FE83B2002001E00120002319000A
:101658000F221B0791435B0F0B43E3601DE0082833
:101668001AD8FEF7E7FD09190519091919190E0005
:101678005968104B480808E05968E1234808DB031B
:1016880003E05968802348081B02C018FEF7DCFDF8
:1016980080B2E060002000E0012070BDF369FFFF28
:1016A800FFCFFFFFFFF4FFFF0010024050190008B2
:1016B8000048E8010024F40070B5041E01D101209F
:1016C80029E0050069352B78DBB2002B02D1020036
:1016D800683213702423012622682B7013682000B7
:1016E800B3431360FFF76EFFB042E8D023680A4A9D
:1016F800596800200A4008215A609A688A439A600B
:101708001A6832431A6022002023E0666A3268347D
:101718002B701370207070BDFFF7FFFFF0B51F002E
:1017280003006A3316001A78040085B00D00022001
:10173800202A65D10138002962D0002E60D080228D
:10174800A1685201914204D12269002A01D10542BF
:1017580056D12200683211780220012950D0012187
:1017680011700022E26622321A70FFF7C5FB2300CF
:101778008021A26858331E805E800390490104339B
:101788008A4206D12269002A01D11E4A07E0FF22B7
:1017980005E0002A04D12269002AF8D07F221A80A5
:1017A8001E8822005A32108880B2002820D0138860
:1017B8002021013B9BB2138020000097039B00224D
:1017C800FFF7CEFE00281AD1A268236811008022F4
:1017D8005201914207D12269002A04D19B8C3340DF
:1017E8002B800235DDE79B8C33402B700135D8E721
:1017F800230020226A3368341A70207000E0032026
:1018080005B0F0BDFF010000F0B5070085B00393F7
:1018180069373B7804000D0016000220202B57D1B1
:101828000138002954D0002A52D08023A2685B01D5
:101838009A4204D12369002B01D1014248D12300E7
:1018480068331A780220012A42D001221A70002334
:10185800E36621333B70FFF74FFB230050331E80B4
:101868005E80802602907601210052310A8892B269
:10187800002A20D00B880022013B9BB20B80039BDF
:10188800802100932000029BFFF76AFE002801D008
:1018980003201DE0A3682268B34208D12369002B06
:1018A80005D12B880235DB05DB0D1385DCE72B78AA
:1018B80001351385D8E7039B402100932000029B44
:1018C800FFF74EFE0028E3D1202368343B702070D8
:1018D80005B0F0BD002103E00B4B5B5843500431C9
:1018E8000A480B4B42189A42F6D30A4A02E00023F0
:1018F80013600432084B9A42F9D300E000BFFEF7A8
:1019080019FEFFF7BDF8FEE7741A00080000002072
:1019180068000020680000200C020020FEE700009C
:10192800F8B5C046F8BC08BC9E467047F8B5C04636
:08193800F8BC08BC9E46704794
:1019400030313233343536373839414243444546F5
:101950000004080257524F4E472050415353574FEF
:1019600052440A00414343455353204752414E5489
:1019700045440A00555346435345002A2A2A2A2A39
:10198000536166652D6F2D6D61746963203330304E
:101990003020426F6F74696E672E2E2E0A00416CE4
:1019A00069676E696E6720626974732E2E2E2E2E03
:1019B0002E2E2E5B444F4E455D0A00436865636BD7
:1019C000696E672043657369756D20524E472E2EF0
:1019D0005B444F4E455D0A004D61737175657261E0
:1019E00064696E6720666C6173682E2E2E5B444FAF
:1019F0004E455D0A0044656372797074696E6720B4
:101A000064617461626173652E2E5B444F4E455D67
:101A10000A000A0A005741524E494E473A20554E95
:101A2000415554484F52495A454420414343455338
:101A3000532057494C4C2042452050554E4953485D
:101A400045440A00506C6561736520656E7465726B
:101A50002070617373776F726420746F20636F6E90
:0C1A600074696E75653A200043000000B8
:041A6C00010200086B
:041A7000D501000894
:101A740000127A00080000200000000000000000AE
:101A84000000000000000000000000000000000052
:101A94000000000000000000681A000800000000B8
:101AA4000000000000000000000000000000000032
:101AB4000000000000000000000000000000000022
:101AC4000000000000000000000000000000000012
:081AD40000000000000000000A
:04000005080018DDFA
:00000001FF
